{
  "_format": "hh-sol-artifact-1",
  "contractName": "UrbanCommerce",
  "sourceName": "contracts/UrbanCommerce.sol",
  "abi": [
    {
      "inputs": [],
      "stateMutability": "nonpayable",
      "type": "constructor"
    },
    {
      "anonymous": false,
      "inputs": [
        {
          "indexed": false,
          "internalType": "address",
          "name": "buyer",
          "type": "address"
        },
        {
          "indexed": false,
          "internalType": "uint256",
          "name": "orderId",
          "type": "uint256"
        },
        {
          "indexed": false,
          "internalType": "uint256",
          "name": "itemId",
          "type": "uint256"
        }
      ],
      "name": "Buy",
      "type": "event"
    },
    {
      "anonymous": false,
      "inputs": [
        {
          "indexed": false,
          "internalType": "string",
          "name": "name",
          "type": "string"
        },
        {
          "indexed": false,
          "internalType": "uint256",
          "name": "cost",
          "type": "uint256"
        },
        {
          "indexed": false,
          "internalType": "uint256",
          "name": "quantity",
          "type": "uint256"
        }
      ],
      "name": "List",
      "type": "event"
    },
    {
      "inputs": [
        {
          "internalType": "uint256",
          "name": "_id",
          "type": "uint256"
        }
      ],
      "name": "buy",
      "outputs": [],
      "stateMutability": "payable",
      "type": "function"
    },
    {
      "inputs": [
        {
          "internalType": "uint256",
          "name": "",
          "type": "uint256"
        }
      ],
      "name": "items",
      "outputs": [
        {
          "internalType": "uint256",
          "name": "id",
          "type": "uint256"
        },
        {
          "internalType": "string",
          "name": "name",
          "type": "string"
        },
        {
          "internalType": "string",
          "name": "category",
          "type": "string"
        },
        {
          "internalType": "string",
          "name": "image",
          "type": "string"
        },
        {
          "internalType": "uint256",
          "name": "cost",
          "type": "uint256"
        },
        {
          "internalType": "uint256",
          "name": "rating",
          "type": "uint256"
        },
        {
          "internalType": "uint256",
          "name": "stock",
          "type": "uint256"
        }
      ],
      "stateMutability": "view",
      "type": "function"
    },
    {
      "inputs": [
        {
          "internalType": "uint256",
          "name": "_id",
          "type": "uint256"
        },
        {
          "internalType": "string",
          "name": "_name",
          "type": "string"
        },
        {
          "internalType": "string",
          "name": "_category",
          "type": "string"
        },
        {
          "internalType": "string",
          "name": "_image",
          "type": "string"
        },
        {
          "internalType": "uint256",
          "name": "_cost",
          "type": "uint256"
        },
        {
          "internalType": "uint256",
          "name": "_rating",
          "type": "uint256"
        },
        {
          "internalType": "uint256",
          "name": "_stock",
          "type": "uint256"
        }
      ],
      "name": "list",
      "outputs": [],
      "stateMutability": "nonpayable",
      "type": "function"
    },
    {
      "inputs": [
        {
          "internalType": "address",
          "name": "",
          "type": "address"
        }
      ],
      "name": "orderCount",
      "outputs": [
        {
          "internalType": "uint256",
          "name": "",
          "type": "uint256"
        }
      ],
      "stateMutability": "view",
      "type": "function"
    },
    {
      "inputs": [
        {
          "internalType": "address",
          "name": "",
          "type": "address"
        },
        {
          "internalType": "uint256",
          "name": "",
          "type": "uint256"
        }
      ],
      "name": "orders",
      "outputs": [
        {
          "internalType": "uint256",
          "name": "time",
          "type": "uint256"
        },
        {
          "components": [
            {
              "internalType": "uint256",
              "name": "id",
              "type": "uint256"
            },
            {
              "internalType": "string",
              "name": "name",
              "type": "string"
            },
            {
              "internalType": "string",
              "name": "category",
              "type": "string"
            },
            {
              "internalType": "string",
              "name": "image",
              "type": "string"
            },
            {
              "internalType": "uint256",
              "name": "cost",
              "type": "uint256"
            },
            {
              "internalType": "uint256",
              "name": "rating",
              "type": "uint256"
            },
            {
              "internalType": "uint256",
              "name": "stock",
              "type": "uint256"
            }
          ],
          "internalType": "struct UrbanCommerce.Item",
          "name": "item",
          "type": "tuple"
        }
      ],
      "stateMutability": "view",
      "type": "function"
    },
    {
      "inputs": [],
      "name": "owner",
      "outputs": [
        {
          "internalType": "address",
          "name": "",
          "type": "address"
        }
      ],
      "stateMutability": "view",
      "type": "function"
    },
    {
      "inputs": [],
      "name": "withdraw",
      "outputs": [],
      "stateMutability": "nonpayable",
      "type": "function"
    }
  ],
  "bytecode": "0x608060405234801561001057600080fd5b50336000806101000a81548173ffffffffffffffffffffffffffffffffffffffff021916908373ffffffffffffffffffffffffffffffffffffffff160217905550611714806100606000396000f3fe6080604052600436106100705760003560e01c80638da5cb5b1161004e5780638da5cb5b14610107578063bfb231d214610132578063d96a094a14610175578063eea8a7e81461019157610070565b80633ccfd60b14610075578063713d856b1461008c578063793b8c6d146100c9575b600080fd5b34801561008157600080fd5b5061008a6101ba565b005b34801561009857600080fd5b506100b360048036038101906100ae9190610d04565b6102ac565b6040516100c09190610d4a565b60405180910390f35b3480156100d557600080fd5b506100f060048036038101906100eb9190610d91565b6102c4565b6040516100fe929190610f1a565b60405180910390f35b34801561011357600080fd5b5061011c6104dd565b6040516101299190610f59565b60405180910390f35b34801561013e57600080fd5b5061015960048036038101906101549190610f74565b610501565b60405161016c9796959493929190610feb565b60405180910390f35b61018f600480360381019061018a9190610f74565b6106db565b005b34801561019d57600080fd5b506101b860048036038101906101b391906111a4565b610b3d565b005b60008054906101000a900473ffffffffffffffffffffffffffffffffffffffff1673ffffffffffffffffffffffffffffffffffffffff163373ffffffffffffffffffffffffffffffffffffffff161461021257600080fd5b60008060009054906101000a900473ffffffffffffffffffffffffffffffffffffffff1673ffffffffffffffffffffffffffffffffffffffff1647604051610259906112cb565b60006040518083038185875af1925050503d8060008114610296576040519150601f19603f3d011682016040523d82523d6000602084013e61029b565b606091505b50509050806102a957600080fd5b50565b60026020528060005260406000206000915090505481565b600360205281600052604060002060205280600052604060002060009150915050806000015490806001016040518060e0016040529081600082015481526020016001820180546103149061130f565b80601f01602080910402602001604051908101604052809291908181526020018280546103409061130f565b801561038d5780601f106103625761010080835404028352916020019161038d565b820191906000526020600020905b81548152906001019060200180831161037057829003601f168201915b505050505081526020016002820180546103a69061130f565b80601f01602080910402602001604051908101604052809291908181526020018280546103d29061130f565b801561041f5780601f106103f45761010080835404028352916020019161041f565b820191906000526020600020905b81548152906001019060200180831161040257829003601f168201915b505050505081526020016003820180546104389061130f565b80601f01602080910402602001604051908101604052809291908181526020018280546104649061130f565b80156104b15780601f10610486576101008083540402835291602001916104b1565b820191906000526020600020905b81548152906001019060200180831161049457829003601f168201915b505050505081526020016004820154815260200160058201548152602001600682015481525050905082565b60008054906101000a900473ffffffffffffffffffffffffffffffffffffffff1681565b600160205280600052604060002060009150905080600001549080600101805461052a9061130f565b80601f01602080910402602001604051908101604052809291908181526020018280546105569061130f565b80156105a35780601f10610578576101008083540402835291602001916105a3565b820191906000526020600020905b81548152906001019060200180831161058657829003601f168201915b5050505050908060020180546105b89061130f565b80601f01602080910402602001604051908101604052809291908181526020018280546105e49061130f565b80156106315780601f1061060657610100808354040283529160200191610631565b820191906000526020600020905b81548152906001019060200180831161061457829003601f168201915b5050505050908060030180546106469061130f565b80601f01602080910402602001604051908101604052809291908181526020018280546106729061130f565b80156106bf5780601f10610694576101008083540402835291602001916106bf565b820191906000526020600020905b8154815290600101906020018083116106a257829003601f168201915b5050505050908060040154908060050154908060060154905087565b6000600160008381526020019081526020016000206040518060e0016040529081600082015481526020016001820180546107159061130f565b80601f01602080910402602001604051908101604052809291908181526020018280546107419061130f565b801561078e5780601f106107635761010080835404028352916020019161078e565b820191906000526020600020905b81548152906001019060200180831161077157829003601f168201915b505050505081526020016002820180546107a79061130f565b80601f01602080910402602001604051908101604052809291908181526020018280546107d39061130f565b80156108205780601f106107f557610100808354040283529160200191610820565b820191906000526020600020905b81548152906001019060200180831161080357829003601f168201915b505050505081526020016003820180546108399061130f565b80601f01602080910402602001604051908101604052809291908181526020018280546108659061130f565b80156108b25780601f10610887576101008083540402835291602001916108b2565b820191906000526020600020905b81548152906001019060200180831161089557829003601f168201915b505050505081526020016004820154815260200160058201548152602001600682015481525050905080608001513410156108ec57600080fd5b60008160c00151116108fd57600080fd5b60006040518060400160405280428152602001838152509050600260003373ffffffffffffffffffffffffffffffffffffffff1673ffffffffffffffffffffffffffffffffffffffff16815260200190815260200160002060008154809291906109669061136f565b919050555080600360003373ffffffffffffffffffffffffffffffffffffffff1673ffffffffffffffffffffffffffffffffffffffff1681526020019081526020016000206000600260003373ffffffffffffffffffffffffffffffffffffffff1673ffffffffffffffffffffffffffffffffffffffff16815260200190815260200160002054815260200190815260200160002060008201518160000155602082015181600101600082015181600001556020820151816001019081610a2d9190611563565b506040820151816002019081610a439190611563565b506060820151816003019081610a599190611563565b506080820151816004015560a0820151816005015560c08201518160060155505090505060018260c00151610a8e9190611635565b600160008581526020019081526020016000206006016000828254610ab39190611635565b925050819055507f1cbc5ab135991bd2b6a4b034a04aa2aa086dac1371cb9b16b8b5e2ed6b036bed33600260003373ffffffffffffffffffffffffffffffffffffffff1673ffffffffffffffffffffffffffffffffffffffff168152602001908152602001600020548460000151604051610b3093929190611669565b60405180910390a1505050565b60008054906101000a900473ffffffffffffffffffffffffffffffffffffffff1673ffffffffffffffffffffffffffffffffffffffff163373ffffffffffffffffffffffffffffffffffffffff1614610b9557600080fd5b60006040518060e0016040528089815260200188815260200187815260200186815260200185815260200184815260200183815250905080600160008a8152602001908152602001600020600082015181600001556020820151816001019081610bff9190611563565b506040820151816002019081610c159190611563565b506060820151816003019081610c2b9190611563565b506080820151816004015560a0820151816005015560c082015181600601559050507ffdbe2a012c10ec01592653978eaa09b5ca60b143a0e617505b2ebcbd911ec5b8878584604051610c80939291906116a0565b60405180910390a15050505050505050565b6000604051905090565b600080fd5b600080fd5b600073ffffffffffffffffffffffffffffffffffffffff82169050919050565b6000610cd182610ca6565b9050919050565b610ce181610cc6565b8114610cec57600080fd5b50565b600081359050610cfe81610cd8565b92915050565b600060208284031215610d1a57610d19610c9c565b5b6000610d2884828501610cef565b91505092915050565b6000819050919050565b610d4481610d31565b82525050565b6000602082019050610d5f6000830184610d3b565b92915050565b610d6e81610d31565b8114610d7957600080fd5b50565b600081359050610d8b81610d65565b92915050565b60008060408385031215610da857610da7610c9c565b5b6000610db685828601610cef565b9250506020610dc785828601610d7c565b9150509250929050565b610dda81610d31565b82525050565b600081519050919050565b600082825260208201905092915050565b60005b83811015610e1a578082015181840152602081019050610dff565b60008484015250505050565b6000601f19601f8301169050919050565b6000610e4282610de0565b610e4c8185610deb565b9350610e5c818560208601610dfc565b610e6581610e26565b840191505092915050565b600060e083016000830151610e886000860182610dd1565b5060208301518482036020860152610ea08282610e37565b91505060408301518482036040860152610eba8282610e37565b91505060608301518482036060860152610ed48282610e37565b9150506080830151610ee96080860182610dd1565b5060a0830151610efc60a0860182610dd1565b5060c0830151610f0f60c0860182610dd1565b508091505092915050565b6000604082019050610f2f6000830185610d3b565b8181036020830152610f418184610e70565b90509392505050565b610f5381610cc6565b82525050565b6000602082019050610f6e6000830184610f4a565b92915050565b600060208284031215610f8a57610f89610c9c565b5b6000610f9884828501610d7c565b91505092915050565b600082825260208201905092915050565b6000610fbd82610de0565b610fc78185610fa1565b9350610fd7818560208601610dfc565b610fe081610e26565b840191505092915050565b600060e082019050611000600083018a610d3b565b81810360208301526110128189610fb2565b905081810360408301526110268188610fb2565b9050818103606083015261103a8187610fb2565b90506110496080830186610d3b565b61105660a0830185610d3b565b61106360c0830184610d3b565b98975050505050505050565b600080fd5b600080fd5b7f4e487b7100000000000000000000000000000000000000000000000000000000600052604160045260246000fd5b6110b182610e26565b810181811067ffffffffffffffff821117156110d0576110cf611079565b5b80604052505050565b60006110e3610c92565b90506110ef82826110a8565b919050565b600067ffffffffffffffff82111561110f5761110e611079565b5b61111882610e26565b9050602081019050919050565b82818337600083830152505050565b6000611147611142846110f4565b6110d9565b90508281526020810184848401111561116357611162611074565b5b61116e848285611125565b509392505050565b600082601f83011261118b5761118a61106f565b5b813561119b848260208601611134565b91505092915050565b600080600080600080600060e0888a0312156111c3576111c2610c9c565b5b60006111d18a828b01610d7c565b975050602088013567ffffffffffffffff8111156111f2576111f1610ca1565b5b6111fe8a828b01611176565b965050604088013567ffffffffffffffff81111561121f5761121e610ca1565b5b61122b8a828b01611176565b955050606088013567ffffffffffffffff81111561124c5761124b610ca1565b5b6112588a828b01611176565b94505060806112698a828b01610d7c565b93505060a061127a8a828b01610d7c565b92505060c061128b8a828b01610d7c565b91505092959891949750929550565b600081905092915050565b50565b60006112b560008361129a565b91506112c0826112a5565b600082019050919050565b60006112d6826112a8565b9150819050919050565b7f4e487b7100000000000000000000000000000000000000000000000000000000600052602260045260246000fd5b6000600282049050600182168061132757607f821691505b60208210810361133a576113396112e0565b5b50919050565b7f4e487b7100000000000000000000000000000000000000000000000000000000600052601160045260246000fd5b600061137a82610d31565b91507fffffffffffffffffffffffffffffffffffffffffffffffffffffffffffffffff82036113ac576113ab611340565b5b600182019050919050565b60008190508160005260206000209050919050565b60006020601f8301049050919050565b600082821b905092915050565b6000600883026114197fffffffffffffffffffffffffffffffffffffffffffffffffffffffffffffffff826113dc565b61142386836113dc565b95508019841693508086168417925050509392505050565b6000819050919050565b600061146061145b61145684610d31565b61143b565b610d31565b9050919050565b6000819050919050565b61147a83611445565b61148e61148682611467565b8484546113e9565b825550505050565b600090565b6114a3611496565b6114ae818484611471565b505050565b5b818110156114d2576114c760008261149b565b6001810190506114b4565b5050565b601f821115611517576114e8816113b7565b6114f1846113cc565b81016020851015611500578190505b61151461150c856113cc565b8301826114b3565b50505b505050565b600082821c905092915050565b600061153a6000198460080261151c565b1980831691505092915050565b60006115538383611529565b9150826002028217905092915050565b61156c82610de0565b67ffffffffffffffff81111561158557611584611079565b5b61158f825461130f565b61159a8282856114d6565b600060209050601f8311600181146115cd57600084156115bb578287015190505b6115c58582611547565b86555061162d565b601f1984166115db866113b7565b60005b82811015611603578489015182556001820191506020850194506020810190506115de565b86831015611620578489015161161c601f891682611529565b8355505b6001600288020188555050505b505050505050565b600061164082610d31565b915061164b83610d31565b925082820390508181111561166357611662611340565b5b92915050565b600060608201905061167e6000830186610f4a565b61168b6020830185610d3b565b6116986040830184610d3b565b949350505050565b600060608201905081810360008301526116ba8186610fb2565b90506116c96020830185610d3b565b6116d66040830184610d3b565b94935050505056fea2646970667358221220934343ef0ddbfa9ddd443361dbf806b7c5495d65224312dcb2f7f9db56c81e3e64736f6c63430008110033",
  "linkReferences": {},
  "deployedLinkReferences": {}
}